{
    "contractName": "FHERouter",
    "abi": [
        {
            "inputs": [
                {
                    "internalType": "address",
                    "name": "_positionManager",
                    "type": "address"
                },
                {
                    "internalType": "address",
                    "name": "_vault",
                    "type": "address"
                },
                {
                    "internalType": "address",
                    "name": "_orderManager",
                    "type": "address"
                },
                {
                    "internalType": "address",
                    "name": "_fheFunding",
                    "type": "address"
                },
                {
                    "internalType": "address",
                    "name": "_collateralToken",
                    "type": "address"
                },
                {
                    "internalType": "address",
                    "name": "_indexToken",
                    "type": "address"
                },
                {
                    "internalType": "address",
                    "name": "_underlyingToken",
                    "type": "address"
                }
            ],
            "stateMutability": "nonpayable",
            "type": "constructor"
        },
        {
            "inputs": [
                {
                    "internalType": "uint8",
                    "name": "got",
                    "type": "uint8"
                },
                {
                    "internalType": "uint8",
                    "name": "expected",
                    "type": "uint8"
                }
            ],
            "name": "InvalidEncryptedInput",
            "type": "error"
        },
        {
            "inputs": [
                {
                    "internalType": "int32",
                    "name": "value",
                    "type": "int32"
                }
            ],
            "name": "SecurityZoneOutOfBounds",
            "type": "error"
        },
        {
            "anonymous": false,
            "inputs": [
                {
                    "indexed": true,
                    "internalType": "address",
                    "name": "user",
                    "type": "address"
                },
                {
                    "indexed": false,
                    "internalType": "bytes32",
                    "name": "amountHandle",
                    "type": "bytes32"
                }
            ],
            "name": "AddLiquidity",
            "type": "event"
        },
        {
            "anonymous": false,
            "inputs": [
                {
                    "indexed": true,
                    "internalType": "bytes32",
                    "name": "positionKey",
                    "type": "bytes32"
                },
                {
                    "indexed": true,
                    "internalType": "address",
                    "name": "trader",
                    "type": "address"
                }
            ],
            "name": "ClosePosition",
            "type": "event"
        },
        {
            "anonymous": false,
            "inputs": [
                {
                    "indexed": true,
                    "internalType": "bytes32",
                    "name": "positionKey",
                    "type": "bytes32"
                },
                {
                    "indexed": true,
                    "internalType": "address",
                    "name": "trader",
                    "type": "address"
                }
            ],
            "name": "OpenPosition",
            "type": "event"
        },
        {
            "anonymous": false,
            "inputs": [
                {
                    "indexed": true,
                    "internalType": "address",
                    "name": "trader",
                    "type": "address"
                },
                {
                    "indexed": false,
                    "internalType": "address",
                    "name": "token",
                    "type": "address"
                }
            ],
            "name": "OrderCreated",
            "type": "event"
        },
        {
            "anonymous": false,
            "inputs": [
                {
                    "indexed": false,
                    "internalType": "uint256",
                    "name": "orderId",
                    "type": "uint256"
                }
            ],
            "name": "OrderExecuted",
            "type": "event"
        },
        {
            "anonymous": false,
            "inputs": [
                {
                    "indexed": true,
                    "internalType": "address",
                    "name": "trader",
                    "type": "address"
                },
                {
                    "indexed": false,
                    "internalType": "uint64",
                    "name": "amount",
                    "type": "uint64"
                }
            ],
            "name": "PlainPayoutRedeemed",
            "type": "event"
        },
        {
            "anonymous": false,
            "inputs": [
                {
                    "indexed": true,
                    "internalType": "bytes32",
                    "name": "positionKey",
                    "type": "bytes32"
                },
                {
                    "indexed": true,
                    "internalType": "address",
                    "name": "trader",
                    "type": "address"
                }
            ],
            "name": "PlainPayoutRequested",
            "type": "event"
        },
        {
            "anonymous": false,
            "inputs": [
                {
                    "indexed": true,
                    "internalType": "address",
                    "name": "user",
                    "type": "address"
                },
                {
                    "indexed": false,
                    "internalType": "bytes32",
                    "name": "amountHandle",
                    "type": "bytes32"
                }
            ],
            "name": "RemoveLiquidity",
            "type": "event"
        },
        {
            "inputs": [
                {
                    "components": [
                        {
                            "internalType": "uint256",
                            "name": "ctHash",
                            "type": "uint256"
                        },
                        {
                            "internalType": "uint8",
                            "name": "securityZone",
                            "type": "uint8"
                        },
                        {
                            "internalType": "uint8",
                            "name": "utype",
                            "type": "uint8"
                        },
                        {
                            "internalType": "bytes",
                            "name": "signature",
                            "type": "bytes"
                        }
                    ],
                    "internalType": "struct InEuint64",
                    "name": "encAmount",
                    "type": "tuple"
                }
            ],
            "name": "addLiquidity",
            "outputs": [],
            "stateMutability": "nonpayable",
            "type": "function"
        },
        {
            "inputs": [
                {
                    "internalType": "uint256",
                    "name": "orderId",
                    "type": "uint256"
                }
            ],
            "name": "cancelEncryptedOrder",
            "outputs": [],
            "stateMutability": "nonpayable",
            "type": "function"
        },
        {
            "inputs": [
                {
                    "internalType": "uint256",
                    "name": "orderId",
                    "type": "uint256"
                }
            ],
            "name": "cancelOrder",
            "outputs": [],
            "stateMutability": "nonpayable",
            "type": "function"
        },
        {
            "inputs": [
                {
                    "internalType": "bytes32",
                    "name": "positionId",
                    "type": "bytes32"
                }
            ],
            "name": "closePosition",
            "outputs": [],
            "stateMutability": "nonpayable",
            "type": "function"
        },
        {
            "inputs": [],
            "name": "collateralToken",
            "outputs": [
                {
                    "internalType": "contract IEncryptedERC20",
                    "name": "",
                    "type": "address"
                }
            ],
            "stateMutability": "view",
            "type": "function"
        },
        {
            "inputs": [
                {
                    "internalType": "address",
                    "name": "token",
                    "type": "address"
                },
                {
                    "components": [
                        {
                            "internalType": "uint256",
                            "name": "ctHash",
                            "type": "uint256"
                        },
                        {
                            "internalType": "uint8",
                            "name": "securityZone",
                            "type": "uint8"
                        },
                        {
                            "internalType": "uint8",
                            "name": "utype",
                            "type": "uint8"
                        },
                        {
                            "internalType": "bytes",
                            "name": "signature",
                            "type": "bytes"
                        }
                    ],
                    "internalType": "struct InEuint64",
                    "name": "encCollateral",
                    "type": "tuple"
                },
                {
                    "components": [
                        {
                            "internalType": "uint256",
                            "name": "ctHash",
                            "type": "uint256"
                        },
                        {
                            "internalType": "uint8",
                            "name": "securityZone",
                            "type": "uint8"
                        },
                        {
                            "internalType": "uint8",
                            "name": "utype",
                            "type": "uint8"
                        },
                        {
                            "internalType": "bytes",
                            "name": "signature",
                            "type": "bytes"
                        }
                    ],
                    "internalType": "struct InEuint64",
                    "name": "encLeverage",
                    "type": "tuple"
                },
                {
                    "components": [
                        {
                            "internalType": "uint256",
                            "name": "ctHash",
                            "type": "uint256"
                        },
                        {
                            "internalType": "uint8",
                            "name": "securityZone",
                            "type": "uint8"
                        },
                        {
                            "internalType": "uint8",
                            "name": "utype",
                            "type": "uint8"
                        },
                        {
                            "internalType": "bytes",
                            "name": "signature",
                            "type": "bytes"
                        }
                    ],
                    "internalType": "struct InEuint128",
                    "name": "encTriggerPrice",
                    "type": "tuple"
                },
                {
                    "components": [
                        {
                            "internalType": "uint256",
                            "name": "ctHash",
                            "type": "uint256"
                        },
                        {
                            "internalType": "uint8",
                            "name": "securityZone",
                            "type": "uint8"
                        },
                        {
                            "internalType": "uint8",
                            "name": "utype",
                            "type": "uint8"
                        },
                        {
                            "internalType": "bytes",
                            "name": "signature",
                            "type": "bytes"
                        }
                    ],
                    "internalType": "struct InEbool",
                    "name": "encIsLong",
                    "type": "tuple"
                }
            ],
            "name": "createEncryptedOrder",
            "outputs": [],
            "stateMutability": "nonpayable",
            "type": "function"
        },
        {
            "inputs": [
                {
                    "internalType": "address",
                    "name": "token",
                    "type": "address"
                },
                {
                    "components": [
                        {
                            "internalType": "uint256",
                            "name": "ctHash",
                            "type": "uint256"
                        },
                        {
                            "internalType": "uint8",
                            "name": "securityZone",
                            "type": "uint8"
                        },
                        {
                            "internalType": "uint8",
                            "name": "utype",
                            "type": "uint8"
                        },
                        {
                            "internalType": "bytes",
                            "name": "signature",
                            "type": "bytes"
                        }
                    ],
                    "internalType": "struct InEuint64",
                    "name": "encCollateral",
                    "type": "tuple"
                },
                {
                    "components": [
                        {
                            "internalType": "uint256",
                            "name": "ctHash",
                            "type": "uint256"
                        },
                        {
                            "internalType": "uint8",
                            "name": "securityZone",
                            "type": "uint8"
                        },
                        {
                            "internalType": "uint8",
                            "name": "utype",
                            "type": "uint8"
                        },
                        {
                            "internalType": "bytes",
                            "name": "signature",
                            "type": "bytes"
                        }
                    ],
                    "internalType": "struct InEuint64",
                    "name": "encLeverage",
                    "type": "tuple"
                },
                {
                    "components": [
                        {
                            "internalType": "uint256",
                            "name": "ctHash",
                            "type": "uint256"
                        },
                        {
                            "internalType": "uint8",
                            "name": "securityZone",
                            "type": "uint8"
                        },
                        {
                            "internalType": "uint8",
                            "name": "utype",
                            "type": "uint8"
                        },
                        {
                            "internalType": "bytes",
                            "name": "signature",
                            "type": "bytes"
                        }
                    ],
                    "internalType": "struct InEuint128",
                    "name": "encTriggerPrice",
                    "type": "tuple"
                },
                {
                    "components": [
                        {
                            "internalType": "uint256",
                            "name": "ctHash",
                            "type": "uint256"
                        },
                        {
                            "internalType": "uint8",
                            "name": "securityZone",
                            "type": "uint8"
                        },
                        {
                            "internalType": "uint8",
                            "name": "utype",
                            "type": "uint8"
                        },
                        {
                            "internalType": "bytes",
                            "name": "signature",
                            "type": "bytes"
                        }
                    ],
                    "internalType": "struct InEbool",
                    "name": "encIsLong",
                    "type": "tuple"
                }
            ],
            "name": "createOrder",
            "outputs": [],
            "stateMutability": "nonpayable",
            "type": "function"
        },
        {
            "inputs": [
                {
                    "internalType": "uint256",
                    "name": "orderId",
                    "type": "uint256"
                },
                {
                    "internalType": "bool",
                    "name": "shouldExecPlain",
                    "type": "bool"
                },
                {
                    "internalType": "bytes",
                    "name": "shouldExecSig",
                    "type": "bytes"
                },
                {
                    "internalType": "bool",
                    "name": "hasLiqPlain",
                    "type": "bool"
                },
                {
                    "internalType": "bytes",
                    "name": "hasLiqSig",
                    "type": "bytes"
                }
            ],
            "name": "executeOrder",
            "outputs": [],
            "stateMutability": "nonpayable",
            "type": "function"
        },
        {
            "inputs": [],
            "name": "fheFundingManager",
            "outputs": [
                {
                    "internalType": "contract FHEFundingRateManager",
                    "name": "",
                    "type": "address"
                }
            ],
            "stateMutability": "view",
            "type": "function"
        },
        {
            "inputs": [
                {
                    "internalType": "bytes32",
                    "name": "positionId",
                    "type": "bytes32"
                },
                {
                    "internalType": "uint256",
                    "name": "finalAmount",
                    "type": "uint256"
                },
                {
                    "internalType": "bytes",
                    "name": "finalAmountSig",
                    "type": "bytes"
                },
                {
                    "internalType": "uint256",
                    "name": "sizePlain",
                    "type": "uint256"
                },
                {
                    "internalType": "bytes",
                    "name": "sizeSig",
                    "type": "bytes"
                },
                {
                    "internalType": "uint256",
                    "name": "collateralPlain",
                    "type": "uint256"
                },
                {
                    "internalType": "bytes",
                    "name": "collateralSig",
                    "type": "bytes"
                },
                {
                    "internalType": "bool",
                    "name": "isLongPlain",
                    "type": "bool"
                }
            ],
            "name": "finalizeClosePlainPayout",
            "outputs": [],
            "stateMutability": "nonpayable",
            "type": "function"
        },
        {
            "inputs": [
                {
                    "internalType": "uint256",
                    "name": "shares",
                    "type": "uint256"
                },
                {
                    "internalType": "bool",
                    "name": "balPlain",
                    "type": "bool"
                },
                {
                    "internalType": "bytes",
                    "name": "balSig",
                    "type": "bytes"
                },
                {
                    "internalType": "bool",
                    "name": "liqPlain",
                    "type": "bool"
                },
                {
                    "internalType": "bytes",
                    "name": "liqSig",
                    "type": "bytes"
                }
            ],
            "name": "finalizeLiquidityWithdrawal",
            "outputs": [],
            "stateMutability": "nonpayable",
            "type": "function"
        },
        {
            "inputs": [
                {
                    "internalType": "address",
                    "name": "token",
                    "type": "address"
                },
                {
                    "components": [
                        {
                            "internalType": "uint256",
                            "name": "ctHash",
                            "type": "uint256"
                        },
                        {
                            "internalType": "uint8",
                            "name": "securityZone",
                            "type": "uint8"
                        },
                        {
                            "internalType": "uint8",
                            "name": "utype",
                            "type": "uint8"
                        },
                        {
                            "internalType": "bytes",
                            "name": "signature",
                            "type": "bytes"
                        }
                    ],
                    "internalType": "struct InEuint64",
                    "name": "encCollateral",
                    "type": "tuple"
                },
                {
                    "components": [
                        {
                            "internalType": "uint256",
                            "name": "ctHash",
                            "type": "uint256"
                        },
                        {
                            "internalType": "uint8",
                            "name": "securityZone",
                            "type": "uint8"
                        },
                        {
                            "internalType": "uint8",
                            "name": "utype",
                            "type": "uint8"
                        },
                        {
                            "internalType": "bytes",
                            "name": "signature",
                            "type": "bytes"
                        }
                    ],
                    "internalType": "struct InEuint64",
                    "name": "encLeverage",
                    "type": "tuple"
                },
                {
                    "components": [
                        {
                            "internalType": "uint256",
                            "name": "ctHash",
                            "type": "uint256"
                        },
                        {
                            "internalType": "uint8",
                            "name": "securityZone",
                            "type": "uint8"
                        },
                        {
                            "internalType": "uint8",
                            "name": "utype",
                            "type": "uint8"
                        },
                        {
                            "internalType": "bytes",
                            "name": "signature",
                            "type": "bytes"
                        }
                    ],
                    "internalType": "struct InEbool",
                    "name": "encIsLong",
                    "type": "tuple"
                },
                {
                    "internalType": "bool",
                    "name": "hasLiqPlain",
                    "type": "bool"
                },
                {
                    "internalType": "bytes",
                    "name": "hasLiqSig",
                    "type": "bytes"
                }
            ],
            "name": "finalizeOpenPosition",
            "outputs": [
                {
                    "internalType": "bytes32",
                    "name": "positionId",
                    "type": "bytes32"
                }
            ],
            "stateMutability": "nonpayable",
            "type": "function"
        },
        {
            "inputs": [
                {
                    "internalType": "address",
                    "name": "token",
                    "type": "address"
                },
                {
                    "internalType": "bool",
                    "name": "hasLiqPlain",
                    "type": "bool"
                },
                {
                    "internalType": "bytes",
                    "name": "hasLiqSig",
                    "type": "bytes"
                }
            ],
            "name": "finalizeOpenPositionPlain",
            "outputs": [
                {
                    "internalType": "bytes32",
                    "name": "positionId",
                    "type": "bytes32"
                }
            ],
            "stateMutability": "nonpayable",
            "type": "function"
        },
        {
            "inputs": [
                {
                    "internalType": "uint256",
                    "name": "orderId",
                    "type": "uint256"
                },
                {
                    "internalType": "bool",
                    "name": "shouldExecPlain",
                    "type": "bool"
                },
                {
                    "internalType": "bytes",
                    "name": "shouldExecSig",
                    "type": "bytes"
                },
                {
                    "internalType": "bool",
                    "name": "hasLiqPlain",
                    "type": "bool"
                },
                {
                    "internalType": "bytes",
                    "name": "hasLiqSig",
                    "type": "bytes"
                }
            ],
            "name": "finalizeOrderExecution",
            "outputs": [],
            "stateMutability": "nonpayable",
            "type": "function"
        },
        {
            "inputs": [],
            "name": "indexToken",
            "outputs": [
                {
                    "internalType": "address",
                    "name": "",
                    "type": "address"
                }
            ],
            "stateMutability": "view",
            "type": "function"
        },
        {
            "inputs": [
                {
                    "internalType": "address",
                    "name": "token",
                    "type": "address"
                },
                {
                    "components": [
                        {
                            "internalType": "uint256",
                            "name": "ctHash",
                            "type": "uint256"
                        },
                        {
                            "internalType": "uint8",
                            "name": "securityZone",
                            "type": "uint8"
                        },
                        {
                            "internalType": "uint8",
                            "name": "utype",
                            "type": "uint8"
                        },
                        {
                            "internalType": "bytes",
                            "name": "signature",
                            "type": "bytes"
                        }
                    ],
                    "internalType": "struct InEuint64",
                    "name": "encCollateral",
                    "type": "tuple"
                },
                {
                    "components": [
                        {
                            "internalType": "uint256",
                            "name": "ctHash",
                            "type": "uint256"
                        },
                        {
                            "internalType": "uint8",
                            "name": "securityZone",
                            "type": "uint8"
                        },
                        {
                            "internalType": "uint8",
                            "name": "utype",
                            "type": "uint8"
                        },
                        {
                            "internalType": "bytes",
                            "name": "signature",
                            "type": "bytes"
                        }
                    ],
                    "internalType": "struct InEuint64",
                    "name": "encLeverage",
                    "type": "tuple"
                },
                {
                    "components": [
                        {
                            "internalType": "uint256",
                            "name": "ctHash",
                            "type": "uint256"
                        },
                        {
                            "internalType": "uint8",
                            "name": "securityZone",
                            "type": "uint8"
                        },
                        {
                            "internalType": "uint8",
                            "name": "utype",
                            "type": "uint8"
                        },
                        {
                            "internalType": "bytes",
                            "name": "signature",
                            "type": "bytes"
                        }
                    ],
                    "internalType": "struct InEbool",
                    "name": "encIsLong",
                    "type": "tuple"
                },
                {
                    "internalType": "bool",
                    "name": "hasLiqPlain",
                    "type": "bool"
                },
                {
                    "internalType": "bytes",
                    "name": "hasLiqSig",
                    "type": "bytes"
                }
            ],
            "name": "openPosition",
            "outputs": [
                {
                    "internalType": "bytes32",
                    "name": "positionId",
                    "type": "bytes32"
                }
            ],
            "stateMutability": "nonpayable",
            "type": "function"
        },
        {
            "inputs": [],
            "name": "orderManager",
            "outputs": [
                {
                    "internalType": "contract FHEOrderManager",
                    "name": "",
                    "type": "address"
                }
            ],
            "stateMutability": "view",
            "type": "function"
        },
        {
            "inputs": [],
            "name": "owner",
            "outputs": [
                {
                    "internalType": "address",
                    "name": "",
                    "type": "address"
                }
            ],
            "stateMutability": "view",
            "type": "function"
        },
        {
            "inputs": [
                {
                    "internalType": "address",
                    "name": "",
                    "type": "address"
                }
            ],
            "name": "pendingOpenRequests",
            "outputs": [
                {
                    "internalType": "bytes32",
                    "name": "collateralHandle",
                    "type": "bytes32"
                },
                {
                    "internalType": "bytes32",
                    "name": "leverageHandle",
                    "type": "bytes32"
                },
                {
                    "internalType": "bytes32",
                    "name": "isLongHandle",
                    "type": "bytes32"
                },
                {
                    "internalType": "bool",
                    "name": "exists",
                    "type": "bool"
                }
            ],
            "stateMutability": "view",
            "type": "function"
        },
        {
            "inputs": [
                {
                    "internalType": "address",
                    "name": "",
                    "type": "address"
                }
            ],
            "name": "pendingPlainRedemption",
            "outputs": [
                {
                    "internalType": "uint64",
                    "name": "",
                    "type": "uint64"
                }
            ],
            "stateMutability": "view",
            "type": "function"
        },
        {
            "inputs": [
                {
                    "internalType": "bytes32",
                    "name": "",
                    "type": "bytes32"
                }
            ],
            "name": "plainPayoutRequested",
            "outputs": [
                {
                    "internalType": "bool",
                    "name": "",
                    "type": "bool"
                }
            ],
            "stateMutability": "view",
            "type": "function"
        },
        {
            "inputs": [],
            "name": "positionManager",
            "outputs": [
                {
                    "internalType": "contract PositionManager",
                    "name": "",
                    "type": "address"
                }
            ],
            "stateMutability": "view",
            "type": "function"
        },
        {
            "inputs": [],
            "name": "redeemPlainPayout",
            "outputs": [],
            "stateMutability": "nonpayable",
            "type": "function"
        },
        {
            "inputs": [
                {
                    "internalType": "uint256",
                    "name": "shares",
                    "type": "uint256"
                },
                {
                    "internalType": "bool",
                    "name": "balPlain",
                    "type": "bool"
                },
                {
                    "internalType": "bytes",
                    "name": "balSig",
                    "type": "bytes"
                },
                {
                    "internalType": "bool",
                    "name": "liqPlain",
                    "type": "bool"
                },
                {
                    "internalType": "bytes",
                    "name": "liqSig",
                    "type": "bytes"
                }
            ],
            "name": "removeLiquidity",
            "outputs": [],
            "stateMutability": "nonpayable",
            "type": "function"
        },
        {
            "inputs": [
                {
                    "internalType": "bytes32",
                    "name": "positionId",
                    "type": "bytes32"
                }
            ],
            "name": "requestClosePlainPayout",
            "outputs": [],
            "stateMutability": "nonpayable",
            "type": "function"
        },
        {
            "inputs": [
                {
                    "internalType": "bytes32",
                    "name": "positionId",
                    "type": "bytes32"
                }
            ],
            "name": "requestClosePosition",
            "outputs": [],
            "stateMutability": "nonpayable",
            "type": "function"
        },
        {
            "inputs": [
                {
                    "internalType": "address",
                    "name": "token",
                    "type": "address"
                },
                {
                    "components": [
                        {
                            "internalType": "uint256",
                            "name": "ctHash",
                            "type": "uint256"
                        },
                        {
                            "internalType": "uint8",
                            "name": "securityZone",
                            "type": "uint8"
                        },
                        {
                            "internalType": "uint8",
                            "name": "utype",
                            "type": "uint8"
                        },
                        {
                            "internalType": "bytes",
                            "name": "signature",
                            "type": "bytes"
                        }
                    ],
                    "internalType": "struct InEuint64",
                    "name": "encCollateral",
                    "type": "tuple"
                },
                {
                    "components": [
                        {
                            "internalType": "uint256",
                            "name": "ctHash",
                            "type": "uint256"
                        },
                        {
                            "internalType": "uint8",
                            "name": "securityZone",
                            "type": "uint8"
                        },
                        {
                            "internalType": "uint8",
                            "name": "utype",
                            "type": "uint8"
                        },
                        {
                            "internalType": "bytes",
                            "name": "signature",
                            "type": "bytes"
                        }
                    ],
                    "internalType": "struct InEuint64",
                    "name": "encLeverage",
                    "type": "tuple"
                },
                {
                    "components": [
                        {
                            "internalType": "uint256",
                            "name": "ctHash",
                            "type": "uint256"
                        },
                        {
                            "internalType": "uint8",
                            "name": "securityZone",
                            "type": "uint8"
                        },
                        {
                            "internalType": "uint8",
                            "name": "utype",
                            "type": "uint8"
                        },
                        {
                            "internalType": "bytes",
                            "name": "signature",
                            "type": "bytes"
                        }
                    ],
                    "internalType": "struct InEbool",
                    "name": "encIsLong",
                    "type": "tuple"
                }
            ],
            "name": "submitDecryptTaskForOpen",
            "outputs": [],
            "stateMutability": "nonpayable",
            "type": "function"
        },
        {
            "inputs": [
                {
                    "internalType": "uint256",
                    "name": "orderId",
                    "type": "uint256"
                }
            ],
            "name": "submitDecryptTaskForOrder",
            "outputs": [
                {
                    "internalType": "bytes32",
                    "name": "hasLiqHandle",
                    "type": "bytes32"
                },
                {
                    "internalType": "bytes32",
                    "name": "shouldExecHandle",
                    "type": "bytes32"
                }
            ],
            "stateMutability": "nonpayable",
            "type": "function"
        },
        {
            "inputs": [
                {
                    "internalType": "uint256",
                    "name": "shares",
                    "type": "uint256"
                }
            ],
            "name": "submitLiquidityWithdrawalCheck",
            "outputs": [],
            "stateMutability": "nonpayable",
            "type": "function"
        },
        {
            "inputs": [
                {
                    "internalType": "address",
                    "name": "token",
                    "type": "address"
                },
                {
                    "components": [
                        {
                            "internalType": "uint256",
                            "name": "ctHash",
                            "type": "uint256"
                        },
                        {
                            "internalType": "uint8",
                            "name": "securityZone",
                            "type": "uint8"
                        },
                        {
                            "internalType": "uint8",
                            "name": "utype",
                            "type": "uint8"
                        },
                        {
                            "internalType": "bytes",
                            "name": "signature",
                            "type": "bytes"
                        }
                    ],
                    "internalType": "struct InEuint64",
                    "name": "encCollateral",
                    "type": "tuple"
                },
                {
                    "components": [
                        {
                            "internalType": "uint256",
                            "name": "ctHash",
                            "type": "uint256"
                        },
                        {
                            "internalType": "uint8",
                            "name": "securityZone",
                            "type": "uint8"
                        },
                        {
                            "internalType": "uint8",
                            "name": "utype",
                            "type": "uint8"
                        },
                        {
                            "internalType": "bytes",
                            "name": "signature",
                            "type": "bytes"
                        }
                    ],
                    "internalType": "struct InEuint64",
                    "name": "encLeverage",
                    "type": "tuple"
                },
                {
                    "components": [
                        {
                            "internalType": "uint256",
                            "name": "ctHash",
                            "type": "uint256"
                        },
                        {
                            "internalType": "uint8",
                            "name": "securityZone",
                            "type": "uint8"
                        },
                        {
                            "internalType": "uint8",
                            "name": "utype",
                            "type": "uint8"
                        },
                        {
                            "internalType": "bytes",
                            "name": "signature",
                            "type": "bytes"
                        }
                    ],
                    "internalType": "struct InEbool",
                    "name": "encIsLong",
                    "type": "tuple"
                }
            ],
            "name": "submitOpenPositionCheck",
            "outputs": [],
            "stateMutability": "nonpayable",
            "type": "function"
        },
        {
            "inputs": [
                {
                    "internalType": "address",
                    "name": "token",
                    "type": "address"
                },
                {
                    "internalType": "uint64",
                    "name": "plainCollateral",
                    "type": "uint64"
                },
                {
                    "components": [
                        {
                            "internalType": "uint256",
                            "name": "ctHash",
                            "type": "uint256"
                        },
                        {
                            "internalType": "uint8",
                            "name": "securityZone",
                            "type": "uint8"
                        },
                        {
                            "internalType": "uint8",
                            "name": "utype",
                            "type": "uint8"
                        },
                        {
                            "internalType": "bytes",
                            "name": "signature",
                            "type": "bytes"
                        }
                    ],
                    "internalType": "struct InEuint64",
                    "name": "encLeverage",
                    "type": "tuple"
                },
                {
                    "components": [
                        {
                            "internalType": "uint256",
                            "name": "ctHash",
                            "type": "uint256"
                        },
                        {
                            "internalType": "uint8",
                            "name": "securityZone",
                            "type": "uint8"
                        },
                        {
                            "internalType": "uint8",
                            "name": "utype",
                            "type": "uint8"
                        },
                        {
                            "internalType": "bytes",
                            "name": "signature",
                            "type": "bytes"
                        }
                    ],
                    "internalType": "struct InEbool",
                    "name": "encIsLong",
                    "type": "tuple"
                }
            ],
            "name": "submitOpenPositionCheckPlain",
            "outputs": [],
            "stateMutability": "nonpayable",
            "type": "function"
        },
        {
            "inputs": [
                {
                    "internalType": "uint256",
                    "name": "orderId",
                    "type": "uint256"
                }
            ],
            "name": "submitOrderExecutionChecks",
            "outputs": [
                {
                    "internalType": "bytes32",
                    "name": "hasLiqHandle",
                    "type": "bytes32"
                },
                {
                    "internalType": "bytes32",
                    "name": "shouldExecHandle",
                    "type": "bytes32"
                }
            ],
            "stateMutability": "nonpayable",
            "type": "function"
        },
        {
            "inputs": [
                {
                    "internalType": "uint256",
                    "name": "shares",
                    "type": "uint256"
                }
            ],
            "name": "submitWithdrawCheck",
            "outputs": [],
            "stateMutability": "nonpayable",
            "type": "function"
        },
        {
            "inputs": [],
            "name": "underlyingToken",
            "outputs": [
                {
                    "internalType": "contract IERC20",
                    "name": "",
                    "type": "address"
                }
            ],
            "stateMutability": "view",
            "type": "function"
        },
        {
            "inputs": [],
            "name": "vault",
            "outputs": [
                {
                    "internalType": "contract FHEVault",
                    "name": "",
                    "type": "address"
                }
            ],
            "stateMutability": "view",
            "type": "function"
        }
    ],
    "bytecode": "60a0346101a957601f6130a338819003918201601f19168301916001600160401b038311848410176101ad5780849260e0946040528339810103126101a957610047816101c1565b90610054602082016101c1565b610060604083016101c1565b61006c606084016101c1565b90610079608085016101c1565b9261009260c061008b60a088016101c1565b96016101c1565b956001600160a01b03861615610164575f80546001600160a01b03199081166001600160a01b03938416179091556001805482169383169390931790925560028054831693821693909317909255600680548216938316939093179092556003805483169382169390931790925560809290925260048054831693909116929092179091556005805490911633179055604051612ecd90816101d682396080518181816101f70152818161075201528181610cbc015281816115c801528181611fa20152818161219501526126660152f35b60405162461bcd60e51b815260206004820152601360248201527f696e76616c696420696e64657820746f6b656e000000000000000000000000006044820152606490fd5b5f80fd5b634e487b7160e01b5f52604160045260245ffd5b51906001600160a01b03821682036101a95756fe60806040526004361015610011575f80fd5b5f5f3560e01c80623ca5e3146114b957806301647700146114b95780630c47ca071461149d578063173940b91461148c5780632495a5991461146457806333236429146114535780633d958f681461142457806342bd937c14611408578063514fcac7146113ea5780635d47dcb9146113cc5780636aba4e6514611172578063791b98bc1461114b5780638da5cb5b146111225780639350b3831461057f57806394133561146110c15780639522df0f146110a65780639f9e1fff14610c3a578063a00374a014610c11578063aed9b6d614610af1578063b2016bd414610be8578063b843cc9f14610bcb578063b85691e814610b6d578063bda1da3414610b2a578063be0f2c3b14610b0c578063beb14cbb14610af1578063c01dd63a146107e6578063c35ba35f146107c9578063cb00bd351461079e578063e54a2ad514610781578063e7d015f21461073c578063f2b7a5c9146105a0578063f46feda61461057f578063f9b6117f14610556578063fbfa77cf1461052d5763ff5d812b1461019a575f80fd5b3461052a57606036600319011261052a576101b36114be565b90602435918215158303610528576044356001600160401b038111610524576101e09036906004016114d4565b90939091906001600160a01b038083169061021e907f0000000000000000000000000000000000000000000000000000000000000000168214611ad0565b6006546001600160a01b031690813b1561052057859160248392604051948593849263d5fe003760e01b845260048401525af180156104e35790859161050b575b5050338452600760205260408420926040519161027b83611b1c565b84548352600185015496602084019788526102b060ff600360028901549860408801998a520154161515806060870152611c74565b33875260076020526102d66040882060035f918281558260018201558260028201550155565b6001546001600160a01b031691823b15610507579161031193918880946040519687958694859363414dbeb360e01b85523360048601611b8c565b03925af180156104e3579085916104ee575b5050519351915160035490946103ea939291610348906001600160a01b031682612b1d565b845461035d906001600160a01b031682612b1d565b6103673382612b1d565b845461037c906001600160a01b031684612b1d565b6103863384612b1d565b845461039b906001600160a01b031687612b1d565b6103a53387612b1d565b60035460015460405163eb3155b560e01b81523360048201526001600160a01b0391821660248201526044810184905295602092879216908290899082906064820190565b03925af180156104e3576104b1575b602093508460018060a01b038154169261042a60405198899687958694636b96f51560e11b86523360048701611cc0565b03925af180156104a457819061046d575b6020925060405191817f4d5d8329baa4a8176f53b4ddbb1dbad515b9faf0fb28419faaab7336abc340e1339280a38152f35b506020823d60201161049c575b8161048760209383611b4b565b81010312610498576020915161043b565b5f80fd5b3d915061047a565b50604051903d90823e3d90fd5b6020843d6020116104db575b816104ca60209383611b4b565b8101031261049857602093506103f9565b3d91506104bd565b6040513d87823e3d90fd5b816104f891611b4b565b61050357835f610323565b8380fd5b8780fd5b8161051591611b4b565b61050357835f61025f565b8580fd5b8280fd5b505b80fd5b503461052a578060031936011261052a576001546040516001600160a01b039091168152602090f35b503461052a578060031936011261052a576002546040516001600160a01b039091168152602090f35b503461052a5761059d61059136611923565b9594909493919361296e565b80f35b503461052a57602036600319011261052a576004356001600160401b0381116105285760806003198236030112610528576105e26105e7913690600401611bc7565b612a4c565b6003546105fd906001600160a01b031682612b1d565b600154610613906001600160a01b031682612b1d565b61061d3382612b1d565b60035460015460405163eb3155b560e01b81523360048201526001600160a01b0391821660248201526044810184905291602091839160649183918891165af1801561073157610702575b5060015482906001600160a01b0316803b156105285760405163b9e1aa0360e01b8152336004820152602481018490529082908290604490829084905af180156106f7576106e2575b50506040519081527f9fb40dcfc6462d5b507f44f65e2a83aa5032335bef20cc08aa57d4117c5b295560203392a280f35b816106ec91611b4b565b61052857815f6106b1565b6040513d84823e3d90fd5b6020813d602011610729575b8161071b60209383611b4b565b810103126104985751610668565b3d915061070e565b6040513d85823e3d90fd5b503461052a578060031936011261052a576040517f00000000000000000000000000000000000000000000000000000000000000006001600160a01b03168152602090f35b503461052a57602036600319011261052a5761059d600435611cf2565b503461052a57602036600319011261052a5760406107bd600435612610565b82519182526020820152f35b503461052a57602036600319011261052a5761059d6004356125be565b503461052a5761010036600319011261052a576024356004356044356001600160401b0381116105035761081e9036906004016114d4565b906084356001600160401b0381116105205761083e9036906004016114d4565b9260c4356001600160401b0381116105075761085e9036906004016114d4565b60e43580151596929492908790036109e9576005546001600160a01b03163303610ac057878a52600860205260ff60408b20541615610a7b57895460405163f172f58f60e01b8152600481018a905290602090829060249082906001600160a01b03165afa908115610a70578b91610a32575b506001600160a01b0316808b52600960205260408b20549098906001600160401b03166109ed57808b52600860205260408b20805460ff191690558a548b986001600160a01b0390911694853b156109e95789978c9561097e610998938b976109646040519e8f9d8e9c8d9b63f75ef53d60e01b8d5260048d015260248c015261010060448c01526101048b0191611b6c565b9160643560648a01526003198984030160848a0152611b6c565b9160a43560a48701526003198684030160c4870152611b6c565b9060e483015203925af180156106f7576109d4575b505260096020526001600160401b036040832091166001600160401b031982541617905580f35b816109de91611b4b565b61052457825f6109ad565b8980fd5b60405162461bcd60e51b815260206004820152601a60248201527f726564656d7074696f6e20616c72656164792070656e64696e670000000000006044820152606490fd5b90506020813d602011610a68575b81610a4d60209383611b4b565b81010312610a6457610a5e90611d74565b5f6108d1565b8a80fd5b3d9150610a40565b6040513d8d823e3d90fd5b60405162461bcd60e51b815260206004820152601b60248201527f6e6f74206120706c61696e207061796f757420706f736974696f6e00000000006044820152606490fd5b60405162461bcd60e51b81526020600482015260096024820152682737ba1037bbb732b960b91b6044820152606490fd5b503461052a5761059d610b0336611a20565b9392909261217e565b503461052a5761059d610b1e36611923565b95949094939193611d88565b503461052a57602036600319011261052a576020906001600160401b03906040906001600160a01b03610b5b6114be565b16815260098452205416604051908152f35b503461052a57602036600319011261052a57600435808252600860205260408220805460ff19166001179055610ba281611cf2565b33907f792e229b64d9a31e9867f1b9271c7b389653ce4b7029eeda83d7b56416686cec8380a380f35b503461052a57602036600319011261052a5761059d600435612494565b503461052a578060031936011261052a576003546040516001600160a01b039091168152602090f35b503461052a578060031936011261052a576006546040516001600160a01b039091168152602090f35b503461052a57608036600319011261052a57610c546114be565b602435906001600160401b03821680830361050357604435906001600160401b038211611060576080600319833603011261106057606435926001600160401b0384116105205760806003198536030112610520576001600160a01b039081169490610ce3907f0000000000000000000000000000000000000000000000000000000000000000168614611ad0565b338652600760205260ff6003604088200154166110685760065486956001600160a01b0390911690813b1561106457869160248392604051948593849263d5fe003760e01b845260048401525af190811561104057869161104b575b50602060018060a01b03600454166064604051809481936323b872dd60e01b83523360048401523060248401528860448401525af18015611040578690611005575b610d8b9150612132565b6003546001600160a01b0316803b1561052057604051631712292f60e31b81523360048201526001600160401b0392909216602483015285908290604490829084905af19081156104e3578591610feb575b5091610e52925060208092604051610df58382611b4b565b8781525f36813760405191610e0b608084611b4b565b6003835260603685850137610e1f83612e56565b526005610e2b83612e77565b5287610e3683612e87565b52604051631888debd60e01b8152958692839260048401612db2565b03818873ea30c4b8b44078bbf8a6ef5b9f1ec1626c7848d95af19283156104e3578593610fb4575b508291610eab610ea6610e9b6105e2600395610f5798503690600401611bc7565b963690600401611bc7565b612ab7565b610eb58685612b88565b8354909690610ecd906001600160a01b031686612b1d565b8754610ee2906001600160a01b031686612b1d565b610eec3386612b1d565b600154610f02906001600160a01b031688612b1d565b60405194610f0f86611b1c565b8552828501908152604085019182526007606086019360018552338a5252604088209451855551600185015551600284015551151591019060ff801983541691151516179055565b6001546001600160a01b0316803b15610fb057604051630aa7f7d960e21b8152336004820152602481019290925282908290604490829084905af180156106f757610f9f5750f35b81610fa991611b4b565b61052a5780f35b5050fd5b94509091508184813d8111610fe4575b610fce8183611b4b565b8101031261049857925184939091906003610e7a565b503d610fc4565b81610ff591611b4b565b61100057835f610ddd565b505050fd5b506020813d602011611038575b8161101f60209383611b4b565b8101031261052057611033610d8b91612125565b610d81565b3d9150611012565b6040513d88823e3d90fd5b8161105591611b4b565b61106057845f610d3f565b8480fd5b8680fd5b60405162461bcd60e51b815260206004820152601660248201527570656e64696e6720726571756573742065786973747360501b6044820152606490fd5b503461052a5761059d6110b836611992565b92919091611f8d565b503461052a57602036600319011261052a576080906040906001600160a01b036110e96114be565b16815260076020522080549060018101549060ff6003600283015492015416916040519384526020840152604083015215156060820152f35b503461052a578060031936011261052a576005546040516001600160a01b039091168152602090f35b503461052a578060031936011261052a57546040516001600160a01b039091168152602090f35b5034610498575f36600319011261049857335f5260096020526001600160401b0360405f205416801561138f57335f52600960205260405f206001600160401b031981541690556024602060018060a01b0360045416604051928380926370a0823160e01b82523060048301525afa801561130a5782915f9161135a575b5010611315576003546001600160a01b0316803b156104985760405163131300a760e21b81523360048201526001600160401b0383166024820152905f908290604490829084905af1801561130a576112f5575b5081602060018060a01b036004541660446040518094819363a9059cbb60e01b83523360048401528760248401525af180156107315783906112ba575b61128b9150612132565b6040519081527fe509a72d8fe5cd5445ff66b9f6e19e0df72e56eb2de3aaa716f6252e62fbe36860203392a280f35b506020813d6020116112ed575b816112d460209383611b4b565b81010312610524576112e861128b91612125565b611281565b3d91506112c7565b6113029192505f90611b4b565b5f905f611244565b6040513d5f823e3d90fd5b60405162461bcd60e51b815260206004820152601a60248201527f696e73756666696369656e7420706c61696e20726573657276650000000000006044820152606490fd5b9150506020813d602011611387575b8161137660209383611b4b565b81010312610498578190515f6111f0565b3d9150611369565b60405162461bcd60e51b81526020600482015260156024820152743737903832b73234b733903932b232b6b83a34b7b760591b6044820152606490fd5b346104985760203660031901126104985760406107bd600435612610565b3461049857602036600319011261049857611406600435612494565b005b34610498576020366003190112610498576114066004356125be565b34610498576020366003190112610498576004355f526008602052602060ff60405f2054166040519015158152f35b34610498576114066110b836611992565b34610498575f366003190112610498576004546040516001600160a01b039091168152602090f35b3461049857611406610b1e36611923565b3461049857602036600319011261049857611406600435611cf2565b611501565b600435906001600160a01b038216820361049857565b9181601f84011215610498578235916001600160401b038311610498576020838186019501011161049857565b346104985760c0366003190112610498576004356001600160a01b03811680820361049857602435906001600160401b03821161049857816004019060805f93600319903603011261049857604435916001600160401b0383116104985760808360040193600319903603011261049857606435916001600160401b038311610498576080836004019360031990360301126104985760843580151581036104985760a4356001600160401b038111610498576115c29036906004016114d4565b926115f77f00000000000000000000000000000000000000000000000000000000000000006001600160a01b03168214611ad0565b6006546001600160a01b031690813b15610498575f9160248392604051948593849263d5fe003760e01b845260048401525af1801561130a5761190e575b506001546001600160a01b031691823b15610507579161167193918880946040519687958694859363414dbeb360e01b85523360048601611b8c565b03925af180156104e3579085916118f9575b5050610ea66116a76105e261169f6105e26116af953690611bc7565b953690611bc7565b923690611bc7565b933384526007602052604084206040516116c881611b1c565b8154815284600183015491602081019283526116fe60ff6003600287015496604085019788520154161515806060840152611c74565b51036118be5783905103611885578590510361184b5761175492338552600760205261173e6040862060035f918281558260018201558260028201550155565b600354610348906001600160a01b031682612b1d565b03925af180156104e357611819575b602093508460018060a01b038154169261179460405198899687958694636b96f51560e11b86523360048701611cc0565b03925af190811561180d5780916117d8575b60209250817f4d5d8329baa4a8176f53b4ddbb1dbad515b9faf0fb28419faaab7336abc340e1339280a3604051908152f35b90506020823d602011611805575b816117f360209383611b4b565b810103126104985760209151906117a6565b3d91506117e6565b604051903d90823e3d90fd5b6020843d602011611843575b8161183260209383611b4b565b810103126104985760209350611763565b3d9150611825565b60405162461bcd60e51b81526020600482015260126024820152710c8d2e4cac6e8d2dedc40dad2e6dac2e8c6d60731b6044820152606490fd5b60405162461bcd60e51b81526020600482015260116024820152700d8caeccae4c2ceca40dad2e6dac2e8c6d607b1b6044820152606490fd5b60405162461bcd60e51b81526020600482015260136024820152720c6ded8d8c2e8cae4c2d840dad2e6dac2e8c6d606b1b6044820152606490fd5b8161190391611b4b565b61050357835f611683565b61191b9197505f90611b4b565b5f955f611635565b9060a06003198301126104985760043591602435801515810361049857916044356001600160401b038111610498578261195f916004016114d4565b9290929160643580151581036104985791608435906001600160401b0382116104985761198e916004016114d4565b9091565b906080600319830112610498576004356001600160a01b038116810361049857916024356001600160401b038111610498576080818303600319011261049857600401916044356001600160401b03811161049857608081840360031901126104985760040191606435906001600160401b0382116104985760809082900360031901126104985760040190565b60a0600319820112610498576004356001600160a01b038116810361049857916024356001600160401b038111610498576080818403600319011261049857600401916044356001600160401b038111610498576080818303600319011261049857600401916064356001600160401b03811161049857608081840360031901126104985760040191608435906001600160401b0382116104985760809082900360031901126104985760040190565b15611ad757565b60405162461bcd60e51b815260206004820152601760248201527f756e737570706f7274656420696e64657820746f6b656e0000000000000000006044820152606490fd5b608081019081106001600160401b03821117611b3757604052565b634e487b7160e01b5f52604160045260245ffd5b90601f801991011681019081106001600160401b03821117611b3757604052565b908060209392818452848401375f828201840152601f01601f1916010190565b6001600160a01b0390911681529015156020820152606060408201819052611bb693910191611b6c565b90565b359060ff8216820361049857565b919060808382031261049857604051611bdf81611b1c565b809380358252611bf160208201611bb9565b6020830152611c0260408201611bb9565b60408301526060810135906001600160401b03821161049857019082601f830112156104985781356001600160401b038111611b375760405193611c50601f8301601f191660200186611b4b565b81855260208285010111610498576020815f92826060960183880137850101520152565b15611c7b57565b60405162461bcd60e51b815260206004820152601860248201527f6f70656e20636865636b206e6f74207375626d697474656400000000000000006044820152606490fd5b6001600160a01b0391821681529116602082015260408101919091526060810191909152608081019190915260a00190565b5f80549091906001600160a01b0316803b15610498575f80916044604051809481936329cf5bb760e21b83523360048401528760248401525af1801561130a57611d5f575b507fc464a8bfb6039473b88046ed712e802fbacfa3dee10f2d79416e4f40bfcb53f9339280a3565b611d6c9192505f90611b4b565b5f905f611d37565b51906001600160a01b038216820361049857565b9593909260a0909592956002545f955f8a611dcd6040519b8c96879586946323500ab560e01b8652600486015215156024850152606060448501526064840191611b6c565b0392600180871b03165af190811561130a575f945f915f945f985f95611f28575b506001546001600160a01b0316803b15610498575f92838a611e266040519788968795869463414dbeb360e01b865260048601611b8c565b03925af1801561130a57611f13575b508360209495611e4e60018060a01b0383541686612b1d565b8154611e63906001600160a01b031689612b1d565b8154611e78906001600160a01b031685612b1d565b611ea360018060a01b0383541694604051998a9788968795636b96f51560e11b875260048701611cc0565b03925af190811561180d5750611ee2575b5060207ff03ed60bf824bdd2c1387f3534cb0fd2ab10270e8ce0cb8b2daec90068eb943e91604051908152a1565b6020813d602011611f0b575b81611efb60209383611b4b565b8101031261049857506020611eb4565b3d9150611eee565b602094505f611f2191611b4b565b5f93611e35565b95509350965094505060a0823d60a011611f85575b81611f4a60a09383611b4b565b8101031261049857611f5b82611d74565b94611f6860208401611d74565b94604084015191608060608601519501519796929497935f611dee565b3d9150611f3d565b6001600160a01b0390811693929190611fc9907f0000000000000000000000000000000000000000000000000000000000000000168514611ad0565b6006545f946001600160a01b0390911690813b15610498575f9160248392604051948593849263d5fe003760e01b845260048401525af1801561130a57612108575b5090600361202c610ea661169f6105e261169f6105e26120a8983690611bc7565b936120378184612b88565b600154909590612050906001600160a01b031687612b1d565b6040519361205d85611b1c565b845260208401918252604084019081526060840191600183523388526007602052604088209451855551600185015551600284015551151591019060ff801983541691151516179055565b6001546001600160a01b031690813b1561052457604051630aa7f7d960e21b815233600482015260248101919091529082908290818381604481015b03925af180156106f7576120f6575050565b612101828092611b4b565b61052a5750565b6120a8929194505f61211991611b4b565b5f93909150600361200b565b5190811515820361049857565b1561213957565b60405162461bcd60e51b815260206004820152601a60248201527f756e6465726c79696e67207472616e73666572206661696c65640000000000006044820152606490fd5b6001600160a01b039081169491939192906121bc907f0000000000000000000000000000000000000000000000000000000000000000168614611ad0565b6006545f94906001600160a01b0316803b15610498575f809160246040518094819363d5fe003760e01b83528c60048401525af1801561130a5761243d575b506116a76105e26122136105e261221b943690611bc7565b933690611bc7565b60ff604082015116600681036124265750610ea661227561227d9261223e612c9c565b50805190606060ff602083015116910151906040519261225d84611b1c565b83526020830152600660408301526060820152612cc0565b943690611bc7565b600354612293906001600160a01b031683612b1d565b6002546122a9906001600160a01b031683612b1d565b6001546122bf906001600160a01b031683612b1d565b6122c93383612b1d565b6002546122df906001600160a01b031685612b1d565b6002546122f5906001600160a01b031684612b1d565b60025461230b906001600160a01b031682612b1d565b60035460015460405163eb3155b560e01b81523360048201526001600160a01b0391821660248201526044810185905291602091839160649183918b91165af18015611040576123f7575b506002546001600160a01b031690813b1561052057918560c492819594604051978896879563046d465f60e11b87523360048801528c602488015260448701526064860152608485015260a48401525af180156106f7576123e2575b50506040519081527f87ae5ac82b62cc3d79a46528db4091b2c47aa8ab748e1ea48160b5389394d47a60203392a2565b6123ed828092611b4b565b61052a57806123b2565b6020813d60201161241e575b8161241060209383611b4b565b810103126104985751612356565b3d9150612403565b6367cf307160e01b86526004526006602452604485fd5b61244a9195505f90611b4b565b5f936116a76121fb565b91908260c09103126104985761246982611d74565b9161247660208201611d74565b91604082015191606081015191611bb660a060808401519301612125565b60025460405163bda3323160e01b8152600481018390525f926001600160a01b039092169160c082602481865afa92831561130a575f925f94612582575b50803b1561049857604051637323a7d360e01b815260048101929092523360248301525f908290604490829084905af1801561130a5761256d575b50600154612524906001600160a01b031683612b1d565b6001546001600160a01b031690813b1561050357604051637e71332b60e01b81526001600160a01b039091166004820152602481019290925282908290818381604481016120e4565b61257a9193505f90611b4b565b5f915f61250d565b9093506125a891925060c03d60c0116125b7575b6125a08183611b4b565b810190612454565b5050509291905091925f6124d2565b503d612596565b6001546001600160a01b031690813b15610498575f91604483926040519485938492631aeea0f160e31b845233600485015260248401525af1801561130a576126045750565b5f61260e91611b4b565b565b60025460405163bda3323160e01b815260048101839052915f9160c090849060249082906001600160a01b03165afa92831561130a575f935f5f925f92612943575b506001600160a01b03908116929061268d907f0000000000000000000000000000000000000000000000000000000000000000168414611ad0565b6006546001600160a01b0316803b15610498575f809160246040518094819363d5fe003760e01b83528960048401525af1801561130a57612929575b50906126d491612b88565b6001546126ea906001600160a01b031682612b1d565b6001546001600160a01b031690813b1561106057604051630aa7f7d960e21b81526001600160a01b038716600482015260248101919091529084908290604490829084905af1801561290957908491612914575b505082546040516307dc0d1d60e41b81529190602090839060049082906001600160a01b03165afa9182156129095784926128c4575b506040516341976e0960e01b8152600481019190915290602090829060249082906001600160a01b03165afa8015610731578390612891575b60209150604460018060a01b03600254169385604051958694859363558cfb2160e11b8552600485015260248401525af19081156106f757829161285f575b5060015460408051634f2fef4960e01b81526001600160a01b0395861660048201529294909183916024918391165afa91821561180d57809261282e57505091565b9091506040823d604011612857575b8161284a60409383611b4b565b8101031261052a57505191565b3d915061283d565b90506020813d602011612889575b8161287a60209383611b4b565b8101031261049857515f6127ec565b3d915061286d565b506020813d6020116128bc575b816128ab60209383611b4b565b8101031261049857602090516127ad565b3d915061289e565b9091506020813d602011612901575b816128e060209383611b4b565b8101031261050357516001600160a01b038116810361050357906020612774565b3d91506128d3565b6040513d86823e3d90fd5b8161291e91611b4b565b61052457825f61273e565b6126d4929195505f61293a91611b4b565b5f9490916126c9565b9250505061296191935060c03d60c0116125b7576125a08183611b4b565b509395935090915f612652565b6129d960209694955f93949860018060a01b0360015416966129c06040519b8c9a8b998a98637d77e94b60e01b8a523360048b015260248a01521515604489015260c0606489015260c4880191611b6c565b92151560848601528483036003190160a4860152611b6c565b03925af190811561130a575f91612a1a575b506040519081527faf061a27ae6f200b316108d4f34d1cd527040a8c67685479f9373c7e662d226660203392a2565b90506020813d602011612a44575b81612a3560209383611b4b565b8101031261049857515f6129eb565b3d9150612a28565b60ff60408201511660058103612aa05750611bb690612a69612c9c565b50805190606060ff6020830151169101519060405192612a8884611b1c565b83526020830152600560408301526060820152612cc0565b6367cf307160e01b5f52600452600560245260445ffd5b60ff60408201511680612b075750611bb690612ad1612c9c565b50805190606060ff6020830151169101519060405192612af084611b1c565b835260208301525f60408301526060820152612cc0565b6367cf307160e01b5f526004525f60245260445ffd5b73ea30c4b8b44078bbf8a6ef5b9f1ec1626c7848d93b1561049857604051631974142760e21b815260048101919091526001600160a01b039190911660248201525f816044818373ea30c4b8b44078bbf8a6ef5b9f1ec1626c7848d95af1801561130a576126045750565b908115612c8c575b8015612c7e575b60405191612ba6606084611b4b565b600283526040366020850137612bbb83612e56565b52612bc582612e77565b5260209081612c1660405192612bdb8385611b4b565b5f84525f368137612c286040519485938493631888debd60e01b855260056004860152600f6024860152608060448601526084850190612d7f565b83810360031901606485015290612d7f565b03815f73ea30c4b8b44078bbf8a6ef5b9f1ec1626c7848d95af191821561130a575f92612c5457505090565b90809250813d8311612c77575b612c6b8183611b4b565b81010312610498575190565b503d612c61565b50612c87612de5565b612b97565b9050612c96612de5565b90612b90565b60405190612ca982611b1c565b606080835f81525f60208201525f60408201520152565b6020606060e4829360405194859384926313fce3b160e11b8452604060048501528051604485015260ff8382015116606485015260ff60408201511660848501520151608060a484015280519182918260c4860152018484015e5f838284010152336024830152601f801991011681010301815f73ea30c4b8b44078bbf8a6ef5b9f1ec1626c7848d95af190811561130a575f91612d5c575090565b90506020813d602011612d77575b81612c6b60209383611b4b565b3d9150612d6a565b90602080835192838152019201905f5b818110612d9c5750505090565b8251845260209384019390920191600101612d8f565b9091612dd7611bb69360058452601a6020850152608060408501526080840190612d7f565b916060818403910152612d7f565b6020612c2881604051612df88282611b4b565b5f81525f36813760405190612e0e608083611b4b565b60038252606036848401375f612e2383612e56565b526005612e2f83612e77565b525f612e3a83612e87565b52604051631888debd60e01b8152938492839260048401612db2565b805115612e635760200190565b634e487b7160e01b5f52603260045260245ffd5b805160011015612e635760400190565b805160021015612e63576060019056fea2646970667358221220c45870a0f7434d3793ecfbd39c4a7e54898c0f3c61b3270fb56762d8e432b64764736f6c63430008230033",
    "sourcePath": "/Users/mohini/Shadespot_updates/Shadespot2_now/contracts/src/trading/FHERouter.sol",
    "compiler": {
        "name": "solc",
        "version": "0.8.35+commit.47b9dedd"
    },
    "functionHashes": {
        "addLiquidity((uint256,uint8,uint8,bytes))": "f2b7a5c9",
        "cancelEncryptedOrder(uint256)": "b843cc9f",
        "cancelOrder(uint256)": "514fcac7",
        "closePosition(bytes32)": "e54a2ad5",
        "collateralToken()": "b2016bd4",
        "createEncryptedOrder(address,(uint256,uint8,uint8,bytes),(uint256,uint8,uint8,bytes),(uint256,uint8,uint8,bytes),(uint256,uint8,uint8,bytes))": "aed9b6d6",
        "createOrder(address,(uint256,uint8,uint8,bytes),(uint256,uint8,uint8,bytes),(uint256,uint8,uint8,bytes),(uint256,uint8,uint8,bytes))": "beb14cbb",
        "executeOrder(uint256,bool,bytes,bool,bytes)": "be0f2c3b",
        "fheFundingManager()": "a00374a0",
        "finalizeClosePlainPayout(bytes32,uint256,bytes,uint256,bytes,uint256,bytes,bool)": "c01dd63a",
        "finalizeLiquidityWithdrawal(uint256,bool,bytes,bool,bytes)": "f46feda6",
        "finalizeOpenPosition(address,(uint256,uint8,uint8,bytes),(uint256,uint8,uint8,bytes),(uint256,uint8,uint8,bytes),bool,bytes)": "01647700",
        "finalizeOpenPositionPlain(address,bool,bytes)": "ff5d812b",
        "finalizeOrderExecution(uint256,bool,bytes,bool,bytes)": "173940b9",
        "indexToken()": "e7d015f2",
        "openPosition(address,(uint256,uint8,uint8,bytes),(uint256,uint8,uint8,bytes),(uint256,uint8,uint8,bytes),bool,bytes)": "003ca5e3",
        "orderManager()": "f9b6117f",
        "owner()": "8da5cb5b",
        "pendingOpenRequests(address)": "94133561",
        "pendingPlainRedemption(address)": "bda1da34",
        "plainPayoutRequested(bytes32)": "3d958f68",
        "positionManager()": "791b98bc",
        "redeemPlainPayout()": "6aba4e65",
        "removeLiquidity(uint256,bool,bytes,bool,bytes)": "9350b383",
        "requestClosePlainPayout(bytes32)": "b85691e8",
        "requestClosePosition(bytes32)": "0c47ca07",
        "submitDecryptTaskForOpen(address,(uint256,uint8,uint8,bytes),(uint256,uint8,uint8,bytes),(uint256,uint8,uint8,bytes))": "9522df0f",
        "submitDecryptTaskForOrder(uint256)": "5d47dcb9",
        "submitLiquidityWithdrawalCheck(uint256)": "c35ba35f",
        "submitOpenPositionCheck(address,(uint256,uint8,uint8,bytes),(uint256,uint8,uint8,bytes),(uint256,uint8,uint8,bytes))": "33236429",
        "submitOpenPositionCheckPlain(address,uint64,(uint256,uint8,uint8,bytes),(uint256,uint8,uint8,bytes))": "9f9e1fff",
        "submitOrderExecutionChecks(uint256)": "cb00bd35",
        "submitWithdrawCheck(uint256)": "42bd937c",
        "underlyingToken()": "2495a599",
        "vault()": "fbfa77cf"
    },
    "gasEstimates": {
        "creation": {
            "codeDepositCost": "2396200",
            "executionCost": "infinite",
            "totalCost": "infinite"
        },
        "external": {
            "addLiquidity((uint256,uint8,uint8,bytes))": "infinite",
            "cancelEncryptedOrder(uint256)": "infinite",
            "cancelOrder(uint256)": "infinite",
            "closePosition(bytes32)": "infinite",
            "collateralToken()": "2695",
            "createEncryptedOrder(address,(uint256,uint8,uint8,bytes),(uint256,uint8,uint8,bytes),(uint256,uint8,uint8,bytes),(uint256,uint8,uint8,bytes))": "infinite",
            "createOrder(address,(uint256,uint8,uint8,bytes),(uint256,uint8,uint8,bytes),(uint256,uint8,uint8,bytes),(uint256,uint8,uint8,bytes))": "infinite",
            "executeOrder(uint256,bool,bytes,bool,bytes)": "infinite",
            "fheFundingManager()": "2651",
            "finalizeClosePlainPayout(bytes32,uint256,bytes,uint256,bytes,uint256,bytes,bool)": "infinite",
            "finalizeLiquidityWithdrawal(uint256,bool,bytes,bool,bytes)": "infinite",
            "finalizeOpenPosition(address,(uint256,uint8,uint8,bytes),(uint256,uint8,uint8,bytes),(uint256,uint8,uint8,bytes),bool,bytes)": "infinite",
            "finalizeOpenPositionPlain(address,bool,bytes)": "infinite",
            "finalizeOrderExecution(uint256,bool,bytes,bool,bytes)": "infinite",
            "indexToken()": "infinite",
            "openPosition(address,(uint256,uint8,uint8,bytes),(uint256,uint8,uint8,bytes),(uint256,uint8,uint8,bytes),bool,bytes)": "infinite",
            "orderManager()": "2981",
            "owner()": "2541",
            "pendingOpenRequests(address)": "9111",
            "pendingPlainRedemption(address)": "2912",
            "plainPayoutRequested(bytes32)": "2459",
            "positionManager()": "2516",
            "redeemPlainPayout()": "infinite",
            "removeLiquidity(uint256,bool,bytes,bool,bytes)": "infinite",
            "requestClosePlainPayout(bytes32)": "infinite",
            "requestClosePosition(bytes32)": "infinite",
            "submitDecryptTaskForOpen(address,(uint256,uint8,uint8,bytes),(uint256,uint8,uint8,bytes),(uint256,uint8,uint8,bytes))": "infinite",
            "submitDecryptTaskForOrder(uint256)": "infinite",
            "submitLiquidityWithdrawalCheck(uint256)": "infinite",
            "submitOpenPositionCheck(address,(uint256,uint8,uint8,bytes),(uint256,uint8,uint8,bytes),(uint256,uint8,uint8,bytes))": "infinite",
            "submitOpenPositionCheckPlain(address,uint64,(uint256,uint8,uint8,bytes),(uint256,uint8,uint8,bytes))": "infinite",
            "submitOrderExecutionChecks(uint256)": "infinite",
            "submitWithdrawCheck(uint256)": "infinite",
            "underlyingToken()": "2362",
            "vault()": "3003"
        },
        "internal": {
            "_getOraclePrice(address)": "infinite",
            "_getPendingLiqHandle(address)": "infinite"
        }
    }
}